:100000000C9458000C9480000C9480000C94800098
:100010000C9480000C9480000C9480000C94800060
:100020000C9480000C9480000C9480000C94800050
:100030000C9480000C9480000C9480000C94800040
:100040000C9497020C9480000C9465020C943F026F
:100050000C9480000C9480000C9480000C94800020
:100060000C9480000C948000000000002300260007
:10007000290004040404040404040202020202022B
:10008000030303030303010204081020408001025C
:1000900004081020010204081020000000080002DB
:1000A0000100000304070000000000000000A3049A
:1000B00011241FBECFEFD8E0DEBFCDBF11E0A0E01E
:1000C000B1E0E4EFF9E002C005900D92A23EB10765
:1000D000D9F722E0A2EEB1E001C01D92A839B20723
:1000E000E1F710E0C8E5D0E004C02197FE010E94CE
:1000F000F204C735D107C9F70E94E1020C94F80455
:100100000C940000AF92BF92CF92DF92EF92FF92D9
:100110000F931F93CF93DF936C017B018B01040F2F
:10012000151FEB015E01AE18BF08C017D10759F0CB
:100130006991D601ED91FC910190F081E02DC6010D
:100140000995892B79F7C501DF91CF911F910F9107
:10015000FF90EF90DF90CF90BF90AF900895FC019B
:10016000538D448D252F30E0842F90E0821B930B1C
:10017000541710F0CF96089501970895FC01918DC2
:10018000828D981761F0A28DAE0FBF2FB11D5D96C5
:100190008C91928D9F5F9F73928F90E008958FEF67
:1001A0009FEF0895FC01918D828D981731F0828D1B
:1001B000E80FF11D858D90E008958FEF9FEF089572
:1001C000FC01918D228D892F90E0805C9F4F821BD6
:1001D00091098F73992708958BEF91E00E94E000B9
:1001E00021E0892B09F420E0822F089580E090E03F
:1001F000892B29F00E94EC0081110C9400000895D5
:10020000FC01A48DA80FB92FB11DA35ABF4F2C918B
:10021000848D90E001968F739927848FA689B78982
:100220002C93A089B1898C91837080648C93938D79
:10023000848D981306C00288F389E02D80818F7D1C
:1002400080830895EF92FF920F931F93CF93DF93D4
:10025000EC0181E0888F9B8D8C8D98131AC0E88902
:10026000F989808185FF15C09FB7F894EE89FF89D1
:100270006083E889F98980818370806480839FBF6F
:1002800081E090E0DF91CF911F910F91FF90EF906F
:100290000895F62E0B8D10E00F5F1F4F0F7311277F
:1002A000E02E8C8D8E110CC00FB607FCFACFE889BA
:1002B000F989808185FFF5CFCE010E940001F1CF41
:1002C000EB8DEC0FFD2FF11DE35AFF4FF0829FB72E
:1002D000F8940B8FEA89FB8980818062CFCFCF931E
:1002E000DF93EC01888D8823B9F0AA89BB89E8895E
:1002F000F9898C9185FD03C0808186FD0DC00FB604
:1003000007FCF7CF8C9185FFF2CF808185FFEDCF81
:10031000CE010E940001E9CFDF91CF9108953FB750
:10032000F8948091E7019091E801A091E901B091E2
:10033000EA0126B5A89B05C02F3F19F00196A11D23
:10034000B11D3FBFBA2FA92F982F8827BC01CD011F
:10035000620F711D811D911D42E0660F771F881F7E
:10036000991F4A95D1F708958F929F92AF92BF92AD
:100370000F931F93CF93DF93CDB7DEB7A1970FB63F
:10038000F894DEBF0FBECDBF19A2423008F44AE098
:100390008E010F5D1F4F842E912CB12CA12CA50135
:1003A00094010E94D004E62FB901CA01EA3044F555
:1003B000E05DD801EE938D01232B242B252B79F7BB
:1003C00090E080E0109769F0FD0101900020E9F7CE
:1003D0003197AF014A1B5B0BBD018BEF91E00E948F
:1003E0008200A1960FB6F894DEBF0FBECDBFDF919D
:1003F000CF911F910F91BF90AF909F908F900895D4
:10040000E95CD7CFFC0101900020E9F73197AF01FB
:10041000481B590BBC018BEF91E00C948200CF92EA
:10042000DF92EF92FF92CF93DF936C01990FEE086A
:10043000FF08F7FE19C06DE28BEF91E00E942201E8
:10044000EC0166277727CB016C197D098E099F097E
:100450004AE00E94B4018C0F9D1FDF91CF91FF9065
:10046000EF90DF90CF9008954AE0C701B601DF9189
:10047000CF91FF90EF90DF90CF900C94B4011F923A
:100480000F920FB60F9211242F933F934F935F93C8
:100490006F937F938F939F93AF93BF93EF93FF934C
:1004A0008BEF91E00E940001FF91EF91BF91AF911E
:1004B0009F918F917F916F915F914F913F912F917C
:1004C0000F900FBE0F901F9018951F920F920FB6AE
:1004D0000F9211242F938F939F93EF93FF93E091AB
:1004E0000B02F0910C028081E0911102F091120256
:1004F00082FD1BC09081809114028F5F8F732091C9
:100500001502821741F0E0911402F0E0E550FE4F31
:10051000958F80931402FF91EF919F918F912F916E
:100520000F900FBE0F901F9018958081F4CF1F92EF
:100530000F920FB60F9211242F933F938F939F9397
:10054000AF93BF938091E3019091E401A091E50105
:10055000B091E6013091E20123E0230F2D3758F5E9
:100560000196A11DB11D2093E2018093E3019093B8
:10057000E401A093E501B093E6018091E701909139
:10058000E801A091E901B091EA010196A11DB11D18
:100590008093E7019093E801A093E901B093EA0109
:1005A000BF91AF919F918F913F912F910F900FBE6F
:1005B0000F901F90189526E8230F0296A11DB11DDC
:1005C000D2CF789484B5826084BD84B5816084BDC7
:1005D00085B5826085BD85B5816085BD80916E00E1
:1005E000816080936E001092810080918100826012
:1005F000809381008091810081608093810080914F
:1006000080008160809380008091B100846080933D
:10061000B1008091B00081608093B00080917A0039
:10062000846080937A0080917A00826080937A005F
:1006300080917A00816080937A0080917A0080684E
:1006400080937A001092C100E0910B02F0910C02AD
:1006500082E08083E0910702F09108021082E0912D
:100660000902F0910A0280E1808310921302E09166
:100670000F02F091100286E08083E0910D02F0916C
:100680000E02808180618083E0910D02F0910E0264
:10069000808188608083E0910D02F0910E0280815C
:1006A00080688083E0910D02F0910E0280818F7D41
:1006B00080830E948F014B015C0144E6C42ED12C43
:1006C000E12CF12C0E948F01681979098A099B0994
:1006D000683E734081059105A8F321E0C21AD10854
:1006E000E108F10848EE840E43E0941EA11CB11C01
:1006F000C114D104E104F10429F701E010E030E075
:10070000E32E30E0F32E82E191E00E94020286E2C5
:1007100091E00E9402021092EC011092EB01D0E0F5
:10072000C0E0FE01E556FF4F8491FE01E957FF4FFF
:100730009491FE01ED58FF4FE491EE2341F188239F
:1007400059F0833009F4E8C008F0DBC0813009F4C7
:10075000E9C0823009F4EAC0F0E0EE0FFF1FE8596B
:10076000FF4FA591B491EC919E2389F08091EB010C
:100770009091EC0198010C2E02C0220F331F0A94B5
:10078000E2F7822B932B9093EC018093EB0121965F
:1007900085E491E00E9402026091EB017091EC010E
:1007A00090E080E04AE00E94B4018CE591E00E9474
:1007B0000202CE010E940F02CD30D10509F0B1CF67
:1007C0008CE691E00E9402026091EB017091EC01D5
:1007D00090E080E04AE00E94B40186E291E00E944D
:1007E00002028AE891E00E9402028DEEC82E81E0AA
:1007F000D82ED0E0C0E08C2F806480937C00809164
:100800007A00806480937A0080917A0086FDFCCF24
:100810009091780080917900892798278927F6019F
:100820009183808389EA91E00E940202CE010E94B6
:100830000F028FEB91E00E940202F60181919191EB
:100840006F010E940F022196C730D105A1F682ECFC
:1008500091E00E9402028091ED019091EE010E94D0
:100860000F028BEC91E00E9402028091EF019091C7
:10087000F0010E940F028BEC91E00E940202809135
:10088000F1019091F2010E940F028BEC91E00E9425
:1008900002028091F3019091F4010E940F028BEC0F
:1008A00091E00E9402028091F5019091F6010E9470
:1008B0000F028BEC91E00E9402028091F70190916F
:1008C000F8010E940F028BEC91E00E9402028091DD
:1008D000F9019091FA010E940F028AE891E00E94CA
:1008E00002028DEC91E00E940202E114F10409F48D
:1008F0000ACF0E94EC00882309F405CF0E94000073
:1009000002CF8730B1F08830D1F0843009F024CFA5
:10091000809180008F7D03C0809180008F778093CD
:1009200080001ACF84B58F7784BD16CF84B58F7DB4
:10093000FBCF8091B0008F778093B0000DCF809176
:10094000B0008F7DF9CFEBEFF1E01382128288EED9
:1009500093E0A0E0B0E084839583A683B78384E02E
:1009600091E09183808385EC90E09587848784EC87
:1009700090E09787868780EC90E0918B808B81EC6C
:1009800090E0938B828B82EC90E0958B848B86EC4D
:1009900090E0978B868B118E128E138E148E089595
:1009A000A1E21A2EAA1BBB1BFD010DC0AA1FBB1F73
:1009B000EE1FFF1FA217B307E407F50720F0A21BE5
:1009C000B30BE40BF50B661F771F881F991F1A9452
:1009D00069F760957095809590959B01AC01BD017C
:1009E000CF010895EE0FFF1F0590F491E02D0994BB
:0409F000F894FFCFA9
:1009F4000000000022018200AF006F01E000BE0091
:100A0400D2000A2D2D2D2D2D2D2D2D2D2D2D2D2DBD
:100A14002D2D2D2D2D000A2B2B2B2B2B2B2B2B2B64
:100A24002B2B2B2B2B2B2B2B2B2B2B2B2B2B2B2B12
:100A34002B2B2B0A000A526561644469676974614F
:100A44006C53746174757365733A20002C20426989
:100A540074506F736974696F6E3A20000A0A5265A4
:100A640061644469676974616C5374617475736516
:100A7400732066696E616C3A20000A3D3D3D3D3D40
:100A84003D3D3D3D3D3D3D3D3D3D3D3D3D3D3D3D92
:100A94003D3D3D3D3D3D3D0A000A52656164416E68
:100AA400616C6F6753746174757365733A280029B8
:100AB4003A000A46696E616C3A20002C002D2D2DF7
:100AC4002D2D2D2D2D2D2D2D2D2D2D2D2D2D2D0A75
:020AD400000020
:00000001FF
