:100000000C9462000C948A000C948A000C948A0070
:100010000C948A000C948A000C948A000C948A0038
:100020000C948A000C948A000C948A000C948A0028
:100030000C948A000C948A000C948A000C948A0018
:100040000C9465040C948A000C9433040C940D04F5
:100050000C948A000C948A000C948A000C948A00F8
:100060000C948A000C948A000000000023002600F3
:10007000290000000008000201000003040700003E
:1000800000000000000000000000250028002B00F8
:1000900000000000240027002A00040404040404D3
:1000A0000404020202020202030303030303010227
:1000B00004081020408001020408102001020408F6
:1000C0001020750811241FBECFEFD8E0DEBFCDBFD2
:1000D00022E0AEECB1E001C01D92A837B207E1F713
:1000E00011E0A0E0B1E0E0E1F6E102C005900D9280
:1000F000AE3CB107D9F710E0C2E6D0E004C02197CA
:10010000FE010E940E09C136D107C9F70E94AF0453
:100110000C94060B0C94000090E0FC01E255FF4F9C
:10012000249186569F4FFC018491882399F090E09A
:10013000880F991FFC01E057FF4FA591B491FC0176
:10014000EA57FF4F859194918FB7F894EC91E22B89
:10015000EC938FBF0895AF92BF92CF92DF92EF9250
:10016000FF920F931F93CF93DF936C017B018B0161
:10017000040F151FEB015E01AE18BF08C017D107B1
:1001800059F06991D601ED91FC910190F081E02D3B
:10019000C6010995892B79F7C501DF91CF911F9190
:1001A0000F91FF90EF90DF90CF90BF90AF900895A8
:1001B000FC01538D448D252F30E0842F90E0821B6D
:1001C000930B541710F0CF96089501970895FC01F2
:1001D000918D828D981761F0A28DAE0FBF2FB11D4A
:1001E0005D968C91928D9F5F9F73928F90E00895A2
:1001F0008FEF9FEF0895FC01918D828D981731F05C
:10020000828DE80FF11D858D90E008958FEF9FEFAF
:100210000895FC01918D228D892F90E0805C9F4F85
:10022000821B91098F739927089587ED91E00E94B1
:10023000090121E0892B09F420E0822F089580E054
:1002400090E0892B29F00E94150181110C94000087
:100250000895FC01A48DA80FB92FB11DA35ABF4F5B
:100260002C91848D90E001968F739927848FA689B5
:10027000B7892C93A089B1898C91837080648C9309
:10028000938D848D981306C00288F389E02D8081B8
:100290008F7D80830895EF92FF920F931F93CF93EA
:1002A000DF93EC0181E0888F9B8D8C8D98131AC0B1
:1002B000E889F989808185FF15C09FB7F894EE8998
:1002C000FF896083E889F9898081837080648083F5
:1002D0009FBF81E090E0DF91CF911F910F91FF9040
:1002E000EF900895F62E0B8D10E00F5F1F4F0F73E8
:1002F0001127E02E8C8D8E110CC00FB607FCFACFA3
:10030000E889F989808185FFF5CFCE010E94290116
:10031000F1CFEB8DEC0FFD2FF11DE35AFF4FF08273
:100320009FB7F8940B8FEA89FB8980818062CFCFD9
:10033000CF93DF93EC01888D8823B9F0AA89BB891C
:10034000E889F9898C9185FD03C0808186FD0DC007
:100350000FB607FCF7CF8C9185FFF2CF808185FF28
:10036000EDCFCE010E942901E9CFDF91CF91089511
:10037000833081F028F4813099F08230A9F008951B
:100380008730A9F08830C9F08430B1F480918000C2
:100390008F7D03C0809180008F77809380000895C7
:1003A00084B58F7784BD089584B58F7DFBCF809110
:1003B000B0008F778093B00008958091B0008F7D5A
:1003C000F9CFCF93DF93282F30E0F901EE58FF4F9C
:1003D0008491F901E255FF4FD491F901E656FF4FA0
:1003E000C491CC23A1F081110E94B801EC2FF0E060
:1003F000EE0FFF1FE859FF4FA591B491EC91ED234B
:1004000081E090E009F480E0DF91CF91089580E0F1
:1004100090E0FACF1F93CF93DF93282F30E0F901BC
:10042000EE58FF4F8491F901E255FF4FD491F90145
:10043000E656FF4FC491CC23A9F0162F81110E94DC
:10044000B801EC2FF0E0EE0FFF1FEA57FF4FA59128
:10045000B4918FB7F894EC91111108C0D095DE23B8
:10046000DC938FBFDF91CF911F910895DE2BF8CFE2
:100470008E50806480937C0080917A0080648093A9
:100480007A0080917A0086FDFCCF8091780090916F
:10049000790008953FB7F8948091D3019091D401E9
:1004A000A091D501B091D60126B5A89B05C02F3FDC
:1004B00019F00196A11DB11D3FBFBA2FA92F982F8A
:1004C0008827BC01CD01620F711D811D911D42E085
:1004D000660F771F881F991F4A95D1F708958F924D
:1004E0009F92AF92BF92CF92DF92EF92FF924B0119
:1004F0005C010E944A026B017C010E944A026C1955
:100500007D098E099F09683E734081059105A8F316
:1005100021E0821A9108A108B10888EEC80E83E094
:10052000D81EE11CF11C81149104A104B10429F727
:10053000FF90EF90DF90CF90BF90AF909F908F9003
:100540000895FC0101900020E9F73197AF01481BA5
:10055000590BBC0187ED91E00C94AB000F931F93F6
:10056000CF93DF93EC0188819981009759F02A811C
:100570003B812617370730F081E0DF91CF911F9143
:100580000F9108958B016F5F7F4F0E94390A00978A
:1005900059F0998388831B830A832C813D81232B07
:1005A00059F7FC011082E8CF80E0E7CFEF92FF928D
:1005B0000F931F93CF93DF936115710541F480E092
:1005C000DF91CF911F910F91FF90EF90089541150A
:1005D0005105B1F07B01EC010C811D81040F151F49
:1005E000B8010E94AE02882351F3288139818C81A1
:1005F0009D81B701820F931F0E94FF0A1D830C8308
:1006000081E0DECFCF93DF93EC0188819981009761
:1006100011F00E94B009198218821D821C821B826F
:100620001A82DF91CF910895EF92FF920F931F935B
:10063000CF93DF93CDB7DEB728970FB6F894DEBF20
:100640000FBECDBF7C01CB014AE08E010F5F1F4F73
:10065000B8010E94A208F80101900020E9F7319743
:10066000AF01401B510BB801C7010E94D602811196
:1006700003C0C7010E940203C70128960FB6F89471
:10068000DEBF0FBECDBFDF91CF911F910F91FF90C5
:10069000EF900895CF93DF93EC01FB0101900020D0
:1006A000E9F73197AF01461B570B0E94D602811123
:1006B00003C0CE010E940203CE01DF91CF910895C5
:1006C000CF93DF93EC01FB014481558160817181FF
:1006D0000E94D602811103C0CE010E940203CE0106
:1006E000DF91CF910895EF92FF920F931F93CF93D5
:1006F000DF93EC017B018A01BA010E94AE028111F5
:100700000BC0CE010E940203CE01DF91CF911F9159
:100710000F91FF90EF9008951D830C83B70188819E
:1007200099810E94FF0AF0CFEF92FF920F931F93DF
:10073000CF93DF93CDB7DEB729970FB6F894DEBF1E
:100740000FBECDBF8C01862FF8011182108213825B
:100750001282158214824AE09E012F5F3F4F790179
:10076000B90190E00E94AD08F70101900020E9F77F
:100770003197AF014E195F09B701C8010E94730399
:1007800029960FB6F894DEBF0FBECDBFDF91CF9193
:100790001F910F91FF90EF900895EF92FF920F93AA
:1007A0001F93CF93DF93CDB7DEB762970FB6F89460
:1007B000DEBF0FBECDBF8C01CB01F80111821082CC
:1007C00013821282158214824AE09E012F5F3F4FEE
:1007D0007901B9010E94A208F70101900020E9F710
:1007E0003197AF014E195F09B701C8010E94730329
:1007F00062960FB6F894DEBF0FBECDBFDF91CF91EA
:100800001F910F91FF90EF900895FC0180819181DD
:10081000009711F00C94B00908951F920F920FB633
:100820000F9211242F933F934F935F936F937F9376
:100830008F939F93AF93BF93EF93FF9387ED91E0D7
:100840000E942901FF91EF91BF91AF919F918F91EC
:100850007F916F915F914F913F912F910F900FBEBC
:100860000F901F9018951F920F920FB60F921124A0
:100870002F938F939F93EF93FF93E091E701F09174
:10088000E8018081E091ED01F091EE0182FD1BC055
:1008900090818091F0018F5F8F732091F101821719
:1008A00041F0E091F001F0E0E952FE4F958F809326
:1008B000F001FF91EF919F918F912F910F900FBEBB
:1008C0000F901F9018958081F4CF1F920F920FB652
:1008D0000F9211242F933F938F939F93AF93BF93C6
:1008E0008091CF019091D001A091D101B091D2011E
:1008F0003091CE0123E0230F2D3758F50196A11D2D
:10090000B11D2093CE018093CF019093D001A0938D
:10091000D101B093D2018091D3019091D401A091E3
:10092000D501B091D6010196A11DB11D8093D301CF
:100930009093D401A093D501B093D601BF91AF910C
:100940009F918F913F912F910F900FBE0F901F900D
:10095000189526E8230F0296A11DB11DD2CFCF9383
:10096000DF93CDB7DEB7A4970FB6F894DEBF0FBE06
:10097000CDBF789484B5826084BD84B5816084BD28
:1009800085B5826085BD85B5816085BD80916E002D
:10099000816080936E00109281008091810082605E
:1009A000809381008091810081608093810080919B
:1009B00080008160809380008091B100846080938A
:1009C000B1008091B00081608093B00080917A0086
:1009D000846080937A0080917A00826080937A00AC
:1009E00080917A00816080937A0080917A0080689B
:1009F00080937A001092C100E091E701F091E80144
:100A000082E08083E091E301F091E4011082E091C3
:100A1000E501F091E60180E180831092EF01E09121
:100A2000EB01F091EC0186E08083E091E901F09127
:100A3000EA01808180618083E091E901F091EA011F
:100A4000808188608083E091E901F091EA018081F2
:100A500080688083E091E901F091EA0180818F7DD7
:100A6000808388E191E00E94A10282E00E948C00D4
:100A700084E00E948C0087E00E948C0088E00E9445
:100A80008C0061E082E00E940A0261E084E00E9442
:100A90000A0261E087E00E940A0261E088E00E94A9
:100AA0000A0268EE73E080E090E00E946F0260E06E
:100AB00082E00E940A0260E084E00E940A0260E094
:100AC00087E00E940A0260E088E00E940A0264EF68
:100AD00071E080E090E00E946F0281E391E00E946B
:100AE000A10264E670E080E090E00E946F0280E086
:100AF000682E80E0782E87E491E00E94A10283E6D0
:100B000091E00E94A10264EF71E080E090E00E9419
:100B10006F0210E000E0502E64EF71E080E090E0A2
:100B20000E946F028FE00813FDC061E082E00E9426
:100B30000A0261E084E00E940A0261E087E00E940C
:100B40000A0261E088E00E940A0282E00E94E1015C
:100B5000019709F0F5C184E00E94E101019709F0D5
:100B6000EFC187E00E94E101019709F0E9C188E047
:100B70000E94E101019709F0E3C185E00E94E101D3
:100B8000BC01CE0101960E94CD0386E00E94E101E6
:100B9000BC01CE0107960E94CD038FE00E9438026F
:100BA000BC01CE010D960E94CD038EE00E9438025A
:100BB000BC01CE0143960E94CD0388E00E94E10172
:100BC0007C0187E00E94E1016C0184E00E94E10168
:100BD0005C0182E00E94E1014C01652DCE01499645
:100BE0000E94940318A21F8E1AA219A21CA21BA273
:100BF00045E050E066E671E0CE014F960E94730337
:100C0000BE01675E7F4FCE014F960E9460036CE687
:100C100071E00E944A03B4010E94140363E771E08B
:100C20000E944A03B5010E94140369E771E00E9423
:100C30004A03B6010E9414036FE771E00E944A0361
:100C4000B7010E94140365E871E00E944A03BE01E7
:100C50006D5E7F4F0E9460036CE871E00E944A0362
:100C6000BE01635F7F4F0E94600361E971E00E94F3
:100C70004A03BE01695F7F4F0E94600366E971E02D
:100C80000E944A03BE016F5F7F4F0E946003FC0118
:100C9000448155816081718187ED91E00E94AB00B4
:100CA00083E691E00E94A102CE014F960E940504C6
:100CB000CE0149960E940504CE0143960E94050488
:100CC000CE010D960E940504CE0107960E940504F0
:100CD000CE0101960E94050464EF71E080E090E08F
:100CE0000E946F020F5F1F4F0031110509F013CFF3
:100CF00086EB91E00E94A10283E691E00E94A102AE
:100D000064EF71E080E090E00E946F026114710472
:100D100009F4F1CE0E941501882309F4ECCE0E945B
:100D20000000E9CE0E30110549F561E082E00E9435
:100D30000A0261E084E00E940A0261E087E00E940A
:100D40000A0260E088E00E940A0282E00E94E1015B
:100D5000019709F0F5C084E00E94E101019709F0D4
:100D6000EFC087E00E94E101019709F0E9C088E047
:100D70000E94E101892B09F400CFE2C00D3011057A
:100D800019F561E082E00E940A0261E084E00E94BD
:100D90000A0260E087E00E940A0261E088E00E94A7
:100DA0000A0282E00E94E101019709F0C9C084E0D3
:100DB0000E94E101019709F0C3C087E00E94E101B0
:100DC000892B09F0BDC0D3CE0C30110519F561E0B7
:100DD00082E00E940A0261E084E00E940A0260E070
:100DE00087E00E940A0260E088E00E940A0282E036
:100DF0000E94E101019709F0A3C084E00E94E10193
:100E0000019709F09DC087E00E94E101892B09F05C
:100E100097C0ADCF0B301105E9F461E082E00E948C
:100E20000A0260E084E00E940A0261E087E00E941A
:100E30000A0261E088E00E940A0282E00E94E10169
:100E4000019709F07DC084E00E94E101892B09F03F
:100E500077C087CE0A301105E9F461E082E00E9494
:100E60000A0260E084E00E940A0261E087E00E94DA
:100E70000A0260E088E00E940A0282E00E94E1012A
:100E8000019709F05DC084E00E94E101892B09F01F
:100E900057C067CF09301105D9F461E082E00E94A4
:100EA0000A0260E084E00E940A0260E087E00E949B
:100EB0000A0261E088E00E940A0282E00E94E101E9
:100EC0000197F1F584E00E94E101892BC9F575CF06
:100ED00008301105D9F461E082E00E940A0260E066
:100EE00084E00E940A0260E087E00E940A0260E05B
:100EF00088E00E940A0282E00E94E101019701F568
:100F000084E00E94E101892BD9F47DCF60E082E08A
:100F10000730110509F044C00E940A0261E084E034
:100F20000E940A0261E087E00E940A0261E088E014
:100F30000E940A0282E00E94E101892B09F40BCE93
:100F4000652DCE0101960E94940318861F821A8691
:100F500019861C861B864AE150E06BE971E0CE01E0
:100F600007960E947303BE016F5F7F4FCE01079605
:100F70000E946003FC01448155816081718187ED8D
:100F800091E00E94AB00CE0107960E940504CE01BD
:100F900001960E94050468E873E180E090E0A0CE2D
:100FA00006301105A9F40E940A0261E084E00E9463
:100FB0000A0261E087E00E940A0260E088E00E9485
:100FC0000A0282E00E94E101892B09F0B9CFC3CE69
:100FD00005301105A9F40E940A0261E084E00E9434
:100FE0000A0260E087E00E940A0261E088E00E9455
:100FF0000A0282E00E94E101892B09F0A1CFD7CE3D
:1010000004301105A9F40E940A0261E084E00E9404
:101010000A0260E087E00E940A0260E088E00E9425
:101020000A0282E00E94E101892B09F089CFE5CE16
:1010300003301105A9F40E940A0260E084E00E94D6
:101040000A0261E087E00E940A0261E088E00E94F3
:101050000A0282E00E94E101892B09F071CFF3CEF0
:1010600002301105A9F40E940A0260E084E00E94A7
:101070000A0261E087E00E940A0260E088E00E94C4
:101080000A0282E00E94E101892B09F059CFFBCED0
:1010900001301105A9F40E940A0260E084E00E9478
:1010A0000A0260E087E00E940A0261E088E00E9494
:1010B0000A0282E00E94E101892B09F041CF02CFB0
:1010C0000E940A0260E084E00E940A0260E087E079
:1010D0000E940A0260E088E00E940A0282E00E9408
:1010E000E101892B09F02CCF0BCFE7EDF1E0138262
:1010F000128288EE93E0A0E0B0E084839583A6831B
:10110000B7838AE091E09183808385EC90E09587B6
:10111000848784EC90E09787868780EC90E0918BC1
:10112000808B81EC90E0938B828B82EC90E0958BAE
:10113000848B86EC90E0978B868B118E128E138EAB
:10114000148E0895BB274A3031F4992322F4BDE26E
:10115000909581959F4F0C94AE08BB27FB015527B6
:10116000AA27880F991FAA1FA41710F0A41B839504
:101170005051B9F7A05DAA3308F0A95DA19300977B
:1011800079F7B111B1931192CB010C94C708DC012E
:10119000FC01672F71917723E1F7329704C07C91AE
:1011A0006D9370836291AE17BF07C8F308952F92B5
:1011B0003F924F925F926F927F928F929F92AF92E7
:1011C000BF92CF92DF92EF92FF920F931F93CF9334
:1011D000DF93CDB7DEB7CA1BDB0B0FB6F894DEBFCB
:1011E0000FBECDBF09942A88398848885F846E84F1
:1011F0007D848C849B84AA84B984C884DF80EE803B
:10120000FD800C811B81AA81B981CE0FD11D0FB643
:10121000F894DEBF0FBECDBFED010895EE0FFF1FA6
:101220000590F491E02D09940F931F93CF93DF93D2
:101230008230910510F482E090E0E0917602F09126
:10124000770230E020E0B0E0A0E0309799F421157B
:10125000310509F44AC0281B390B24303105D8F573
:101260008A819B816115710589F1FB0193838283DA
:10127000FE0111C040815181028113814817590735
:10128000E0F04817590799F4109761F012960C9303
:10129000129713961C933296CF01DF91CF911F9135
:1012A0000F9108950093760210937702F4CF2115E1
:1012B000310551F04217530738F0A901DB019A01BB
:1012C000BD01DF01F801C1CFEF01F9CF90937702A3
:1012D00080937602CDCFFE01E20FF31F81939193AD
:1012E0002250310939832883D7CF2091740230915D
:1012F0007502232B41F420910201309103013093B8
:101300007502209374022091000130910101211592
:10131000310541F42DB73EB74091040150910501CC
:10132000241B350BE0917402F0917502E217F3076C
:10133000A0F42E1B3F0B2817390778F0AC014E5F45
:101340005F4F2417350748F04E0F5F1F509375020B
:1013500040937402819391939FCFF0E0E0E09CCFA3
:10136000CF93DF930097E9F0FC013297138212824A
:10137000A0917602B0917702ED0130E020E0109765
:10138000A1F420813181820F931F2091740230914A
:1013900075022817390709F061C0F0937502E093D0
:1013A0007402DF91CF910895EA01CE17DF07E8F5C7
:1013B0004A815B819E0141155105B1F7E901FB832B
:1013C000EA8349915991C40FD51FEC17FD0761F4C9
:1013D000808191810296840F951FE901998388830A
:1013E000828193819B838A83F0E0E0E012968D9165
:1013F0009C9113970097B9F52D913C911197CD01D0
:101400000296820F931F2091740230917502281763
:10141000390739F6309751F510927702109276021B
:10142000B0937502A0937402BCCFD383C283408172
:101430005181840F951FC817D90761F44E5F5F4F24
:1014400088819981480F591F518340838A819B81EC
:10145000938382832115310509F0B0CFF093770291
:10146000E09376029ECFFD01DC01C0CF1382128291
:10147000D7CFB0E0A0E0EFE3FAE00C94D9088C01FC
:10148000009751F4CB010E9414098C01C801CDB71B
:10149000DEB7E0E10C94F508FC01E60FF71F9C01B4
:1014A00022503109E217F30708F49DC0D901CD910C
:1014B000DC911197C617D70798F0C530D10530F3E6
:1014C000CE0104978617970708F3C61BD70B229700
:1014D000C193D1936D937C93CF010E94B009D6CF75
:1014E0005B01AC1ABD0A4C018C0E9D1EA0917602C8
:1014F000B0917702512C412CF12CE12C109731F551
:1015000080917402909175028815990509F05CC06C
:101510004616570608F058C08091000190910101CD
:10152000009741F48DB79EB7409104015091050199
:10153000841B950BE817F90708F055C0F093750266
:10154000E0937402F90171836083A0CF8D919C9127
:10155000119712966C90129713967C901397A8157A
:10156000B90559F56C0142E0C40ED11CCA14DB0464
:1015700020F1AC014A195B09DA011296159780F047
:101580006282738251834083D9016D937C93E1140D
:10159000F10471F0D7011396FC93EE93129776CF76
:1015A00022968C0F9D1FF90191838083F301EFCF69
:1015B000F0937702E093760269CF4816590608F453
:1015C0002C017D01D3019ACFCB010E9414097C012B
:1015D000009749F0AE01B8010E94F60AC8010E94C6
:1015E000B009870153CF10E000E050CFFB01DC01D0
:1015F00002C001900D9241505040D8F70895FB0170
:10160000DC0101900D920020E1F70895F894FFCFDE
:10161000000078028000000000004B01AB00D80001
:1016200098010901E700FB000A4F6C612C207365EB
:1016300074757020696E696369616E646F2E2E2EF9
:10164000000A4F6C612C2073657475702065786595
:1016500063757461646F000A4F6C612C206C6F6F4E
:10166000702073656E646F20696E636961646F2EAC
:101670002E2E000D0A004244583A2000207C2053B0
:10168000303A002C2053313A002C2053323A002CAF
:101690002053333A00207C2041303A002041313A37
:1016A000002044363A002044353A000A46616C680E
:1016B00061206E6120657865637563616F20646584
:1016C000204244583A000A4F6C612C206C6F6F70B6
:0E16D0002066696E616C697A61646F2E00009D
:00000001FF
