:020000040000FA
:100000000C9458000C9480000C9480000C94800098
:100010000C9480000C9480000C9480000C94800060
:100020000C9480000C9480000C9480000C94800050
:100030000C9480000C9480000C9480000C94800040
:100040000C9497020C9480000C9465020C943F026F
:100050000C9480000C9480000C9480000C94800020
:100060000C9480000C948000000000002300260007
:10007000290004040404040404040202020202022B
:10008000030303030303010204081020408001025C
:1000900004081020010204081020000000080002DB
:1000A0000100000304070000000000000000A3049A
:1000B00011241FBECFEFD8E0DEBFCDBF11E0A0E01E
:1000C000B1E0E4EFF9E002C005900D92A23EB10765
:1000D000D9F722E0A2EEB1E001C01D92A839B20723
:1000E000E1F710E0C8E5D0E004C02197FE010E94CE
:1000F000F204C735D107C9F70E94E1020C94F80455
:100100000C940000AF92BF92CF92DF92EF92FF92D9
:100110000F931F93CF93DF936C017B018B01040F2F
:10012000151FEB015E01AE18BF08C017D10759F0CB
:100130006991D601ED91FC910190F081E02DC6010D
:100140000995892B79F7C501DF91CF911F910F9107
:10015000FF90EF90DF90CF90BF90AF900895FC019B
:10016000538D448D252F30E0842F90E0821B930B1C
:10017000541710F0CF96089501970895FC01918DC2
:10018000828D981761F0A28DAE0FBF2FB11D5D96C5
:100190008C91928D9F5F9F73928F90E008958FEF67
:1001A0009FEF0895FC01918D828D981731F0828D1B
:1001B000E80FF11D858D90E008958FEF9FEF089572
:1001C000FC01918D228D892F90E0805C9F4F821BD6
:1001D00091098F73992708958BEF91E00E94E000B9
:1001E00021E0892B09F420E0822F089580E090E03F
:1001F000892B29F00E94EC0081110C9400000895D5
:10020000FC01A48DA80FB92FB11DA35ABF4F2C918B
:10021000848D90E001968F739927848FA689B78982
:100220002C93A089B1898C91837080648C93938D79
:10023000848D981306C00288F389E02D80818F7D1C
:1002400080830895EF92FF920F931F93CF93DF93D4
:10025000EC0181E0888F9B8D8C8D98131AC0E88902
:10026000F989808185FF15C09FB7F894EE89FF89D1
:100270006083E889F98980818370806480839FBF6F
:1002800081E090E0DF91CF911F910F91FF90EF906F
:100290000895F62E0B8D10E00F5F1F4F0F7311277F
:1002A000E02E8C8D8E110CC00FB607FCFACFE889BA
:1002B000F989808185FFF5CFCE010E940001F1CF41
:1002C000EB8DEC0FFD2FF11DE35AFF4FF0829FB72E
:1002D000F8940B8FEA89FB8980818062CFCFCF931E
:1002E000DF93EC01888D8823B9F0AA89BB89E8895E
:1002F000F9898C9185FD03C0808186FD0DC00FB604
:1003000007FCF7CF8C9185FFF2CF808185FFEDCF81
:10031000CE010E940001E9CFDF91CF9108953FB750
:10032000F8948091E7019091E801A091E901B091E2
:10033000EA0126B5A89B05C02F3F19F00196A11D23
:10034000B11D3FBFBA2FA92F982F8827BC01CD011F
:10035000620F711D811D911D42E0660F771F881F7E
:10036000991F4A95D1F708958F929F92AF92BF92AD
:100370000F931F93CF93DF93CDB7DEB7A1970FB63F
:10038000F894DEBF0FBECDBF19A2423008F44AE098
:100390008E010F5D1F4F842E912CB12CA12CA50135
:1003A00094010E94D004E62FB901CA01EA3044F555
:1003B000E05DD801EE938D01232B242B252B79F7BB
:1003C00090E080E0109769F0FD0101900020E9F7CE
:1003D0003197AF014A1B5B0BBD018BEF91E00E948F
:1003E0008200A1960FB6F894DEBF0FBECDBFDF919D
:1003F000CF911F910F91BF90AF909F908F900895D4
:10040000E95CD7CFFC0101900020E9F73197AF01FB
:10041000481B590BBC018BEF91E00C948200CF92EA
:10042000DF92EF92FF92CF93DF936C01990FEE086A
:10043000FF08F7FE19C06DE28BEF91E00E942201E8
:10044000EC0166277727CB016C197D098E099F097E
:100450004AE00E94B4018C0F9D1FDF91CF91FF9065
:10046000EF90DF90CF9008954AE0C701B601DF9189
:10047000CF91FF90EF90DF90CF900C94B4011F923A
:100480000F920FB60F9211242F933F934F935F93C8
:100490006F937F938F939F93AF93BF93EF93FF934C
:1004A0008BEF91E00E940001FF91EF91BF91AF911E
:1004B0009F918F917F916F915F914F913F912F917C
:1004C0000F900FBE0F901F9018951F920F920FB6AE
:1004D0000F9211242F938F939F93EF93FF93E091AB
:1004E0000B02F0910C028081E0911102F091120256
:1004F00082FD1BC09081809114028F5F8F732091C9
:100500001502821741F0E0911402F0E0E550FE4F31
:10051000958F80931402FF91EF919F918F912F916E
:100520000F900FBE0F901F9018958081F4CF1F92EF
:100530000F920FB60F9211242F933F938F939F9397
:10054000AF93BF938091E3019091E401A091E50105
:10055000B091E6013091E20123E0230F2D3758F5E9
:100560000196A11DB11D2093E2018093E3019093B8
:10057000E401A093E501B093E6018091E701909139
:10058000E801A091E901B091EA010196A11DB11D18
:100590008093E7019093E801A093E901B093EA0109
:1005A000BF91AF919F918F913F912F910F900FBE6F
:1005B0000F901F90189526E8230F0296A11DB11DDC
:1005C000D2CF789484B5826084BD84B5816084BDC7
:1005D00085B5826085BD85B5816085BD80916E00E1
:1005E000816080936E001092810080918100826012
:1005F000809381008091810081608093810080914F
:1006000080008160809380008091B100846080933D
:10061000B1008091B00081608093B00080917A0039
:10062000846080937A0080917A00826080937A005F
:1006300080917A00816080937A0080917A0080684E
:1006400080937A001092C100E0910B02F0910C02AD
:1006500082E08083E0910702F09108021082E0912D
:100660000902F0910A0280E1808310921302E09166
:100670000F02F091100286E08083E0910D02F0916C
:100680000E02808180618083E0910D02F0910E0264
:10069000808188608083E0910D02F0910E0280815C
:1006A00080688083E0910D02F0910E0280818F7D41
:1006B00080830E948F014B015C0144E6C42ED12C43
:1006C000E12CF12C0E948F01681979098A099B0994
:1006D000683E734081059105A8F321E0C21AD10854
:1006E000E108F10848EE840E43E0941EA11CB11C01
:1006F000C114D104E104F10429F701E010E030E075
:10070000E32E30E0F32E82E191E00E94020286E2C5
:1007100091E00E9402021092EC011092EB01D0E0F5
:10072000C0E0FE01E556FF4F8491FE01E957FF4FFF
:100730009491FE01ED58FF4FE491EE2341F188239F
:1007400059F0833009F4E8C008F0DBC0813009F4C7
:10075000E9C0823009F4EAC0F0E0EE0FFF1FE8596B
:10076000FF4FA591B491EC919E2389F08091EB010C
:100770009091EC0198010C2E02C0220F331F0A94B5
:10078000E2F7822B932B9093EC018093EB0121965F
:1007900085E491E00E9402026091EB017091EC010E
:1007A00090E080E04AE00E94B4018CE591E00E9474
:1007B0000202CE010E940F02CD30D10509F0B1CF67
:1007C0008CE691E00E9402026091EB017091EC01D5
:1007D00090E080E04AE00E94B40186E291E00E944D
:1007E00002028AE891E00E9402028DEEC82E81E0AA
:1007F000D82ED0E0C0E08C2F806480937C00809164
:100800007A00806480937A0080917A0086FDFCCF24
:100810009091780080917900892798278927F6019F
:100820009183808389EA91E00E940202CE010E94B6
:100830000F028FEB91E00E940202F60181919191EB
:100840006F010E940F022196C730D105A1F682ECFC
:1008500091E00E9402028091ED019091EE010E94D0
:100860000F028BEC91E00E9402028091EF019091C7
:10087000F0010E940F028BEC91E00E940202809135
:10088000F1019091F2010E940F028BEC91E00E9425
:1008900002028091F3019091F4010E940F028BEC0F
:1008A00091E00E9402028091F5019091F6010E9470
:1008B0000F028BEC91E00E9402028091F70190916F
:1008C000F8010E940F028BEC91E00E9402028091DD
:1008D000F9019091FA010E940F028AE891E00E94CA
:1008E00002028DEC91E00E940202E114F10409F48D
:1008F0000ACF0E94EC00882309F405CF0E94000073
:1009000002CF8730B1F08830D1F0843009F024CFA5
:10091000809180008F7D03C0809180008F778093CD
:1009200080001ACF84B58F7784BD16CF84B58F7DB4
:10093000FBCF8091B0008F778093B0000DCF809176
:10094000B0008F7DF9CFEBEFF1E01382128288EED9
:1009500093E0A0E0B0E084839583A683B78384E02E
:1009600091E09183808385EC90E09587848784EC87
:1009700090E09787868780EC90E0918B808B81EC6C
:1009800090E0938B828B82EC90E0958B848B86EC4D
:1009900090E0978B868B118E128E138E148E089595
:1009A000A1E21A2EAA1BBB1BFD010DC0AA1FBB1F73
:1009B000EE1FFF1FA217B307E407F50720F0A21BE5
:1009C000B30BE40BF50B661F771F881F991F1A9452
:1009D00069F760957095809590959B01AC01BD017C
:1009E000CF010895EE0FFF1F0590F491E02D0994BB
:1009F000F894FFCF0000000022018200AF006F01D9
:100A0000E000BE00D2000A2D2D2D2D2D2D2D2D2DD7
:100A10002D2D2D2D2D2D2D2D2D000A2B2B2B2B2B60
:100A20002B2B2B2B2B2B2B2B2B2B2B2B2B2B2B2B16
:100A30002B2B2B2B2B2B2B0A000A5265616444694C
:100A4000676974616C53746174757365733A2000DF
:100A50002C20426974506F736974696F6E3A20007C
:100A60000A0A526561644469676974616C53746110
:100A700074757365732066696E616C3A20000A3D77
:100A80003D3D3D3D3D3D3D3D3D3D3D3D3D3D3D3D96
:100A90003D3D3D3D3D3D3D3D3D3D3D0A000A5265EC
:100AA0006164416E616C6F675374617475736573D3
:100AB0003A2800293A000A46696E616C3A20002CF7
:100AC000002D2D2D2D2D2D2D2D2D2D2D2D2D2D2D83
:060AD0002D2D2D0A00008F
:107800000C94343C0C94513C0C94513C0C94513CE1
:107810000C94513C0C94513C0C94513C0C94513CB4
:107820000C94513C0C94513C0C94513C0C94513CA4
:107830000C94513C0C94513C0C94513C0C94513C94
:107840000C94513C0C94513C0C94513C0C94513C84
:107850000C94513C0C94513C0C94513C0C94513C74
:107860000C94513C0C94513C11241FBECFEFD8E036
:10787000DEBFCDBF11E0A0E0B1E0ECE9FFE702C060
:1078800005900D92A230B107D9F712E0A2E0B1E065
:1078900001C01D92AD30B107E1F70E942D3D0C945F
:1078A000CC3F0C94003C982F959595959595959582
:1078B000905D8F708A307CF0282F295A8091C0000B
:1078C00085FFFCCF9093C6008091C00085FFFCCF60
:1078D0002093C6000895282F205DF0CF982F809127
:1078E000C00085FFFCCF9093C6000895EF92FF92F1
:1078F0000F931F93EE24FF2487018091C00087FD22
:1079000017C00894E11CF11C011D111D81E4E8164B
:1079100082E4F8068FE0080780E0180770F3E09132
:107920000401F091050109958091C00087FFE9CF1E
:107930008091C6001F910F91FF90EF9008950E94D3
:10794000763C982F8091C00085FFFCCF9093C600B5
:1079500091362CF490330CF09053892F089597555D
:10796000892F08951F930E949F3C182F0E949F3CCF
:107970001295107F810F1F9108951F93182F882350
:1079800021F00E94763C1150E1F71F9108951F935A
:10799000182F0E94763C803249F0809103018F5F5E
:1079A000809303018530C1F01F9108958091C0003C
:1079B00085FFFCCF84E18093C6008091C00085FFE5
:1079C000FCCF1093C6008091C00085FFFCCF80E102
:1079D0008093C6001F910895E0910401F091050184
:1079E00009951F9108950E94763C803241F0809164
:1079F00003018F5F80930301853081F008958091AA
:107A0000C00085FFFCCF84E18093C6008091C00058
:107A100085FFFCCF80E18093C6000895E0910401CA
:107A2000F09105010995089540E951E08823A1F0FE
:107A30002D9A28EE33E0FA013197F1F721503040CA
:107A4000D1F72D9828EE33E0FA013197F1F7215064
:107A50003040D1F7815061F708953F924F925F9285
:107A60006F927F928F929F92AF92BF92CF92DF924E
:107A7000EF92FF920F931F93CF93DF93000080E16B
:107A80008093C4001092C50088E18093C10086E015
:107A90008093C2005098589A259A81E00E94143D24
:107AA00024E1F22E9EE1E92E85E9D82E0FE0C02ECA
:107AB00010E1B12EAA24A394B1E49B2EA6E58A2E50
:107AC000F2E57F2EE0E26E2E79E4572E63E5462E36
:107AD00050E5352E0E94763C8033B1F18133B9F107
:107AE000803409F46FC0813409F476C0823409F41B
:107AF00085C0853409F488C0803531F1823521F1A3
:107B0000813511F1853509F485C0863509F48DC0BC
:107B1000843609F496C0843709F403C1853709F423
:107B200072C1863709F466C0809103018F5F80932C
:107B30000301853079F6E0910401F0910501099582
:107B40000E94763C803351F60E94F33CC3CF0E94E2
:107B5000763C803249F78091C00085FFFCCFF092DF
:107B6000C6008091C00085FFFCCF9092C600809136
:107B7000C00085FFFCCF8092C6008091C00085FFC9
:107B8000FCCF7092C6008091C00085FFFCCF609250
:107B9000C6008091C00085FFFCCF5092C600809146
:107BA000C00085FFFCCF4092C6008091C00085FFD9
:107BB000FCCF3092C6008091C00085FFFCCFB09210
:107BC000C60088CF0E94763C863808F4BDCF0E945C
:107BD000763C0E94F33C7ECF0E94763C803809F4CC
:107BE0009CC0813809F40BC1823809F43CC1883942
:107BF00009F48FC080E00E94C73C6CCF84E10E94F2
:107C0000BD3C0E94F33C66CF85E00E94BD3C0E94D3
:107C1000F33C60CF0E94763C809306010E94763C44
:107C2000809307010E94F33C55CF0E94763C80333D
:107C300009F41DC183E00E94BD3C80E00E94C73C66
:107C400049CF0E94763C809309020E94763C809343
:107C5000080280910C028E7F80930C020E94763C79
:107C6000853409F415C18091080290910902892B8D
:107C700089F000E010E00E94763CF801E85FFE4FDA
:107C800080830F5F1F4F80910802909109020817AF
:107C9000190788F30E94763C803209F045CF809125
:107CA0000C0280FF01C16091060170910701660F0F
:107CB000771F7093070160930601A0910802B091AD
:107CC00009021097C9F0E8E0F1E09B01AD014E0F09
:107CD0005F1FF999FECF32BD21BD819180BDFA9A17
:107CE000F99A2F5F3F4FE417F50799F76A0F7B1F4B
:107CF00070930701609306018091C00085FFFCCF5F
:107D0000F092C6008091C00085FFFCCFB092C60003
:107D1000E1CE83E00E94C73CDDCE82E00E94C73CFA
:107D2000D9CE0E94763C809309020E94763C8093D3
:107D300008028091060190910701880F991F909386
:107D40000701809306010E94763C853409F4A6C0A1
:107D500080910C028E7F80930C020E94763C8032D0
:107D600009F0B8CE8091C00085FFFCCFF092C6002C
:107D7000609108027091090261157105B9F140E046
:107D800050E080910C02A82FA170B82FB27011C0E2
:107D9000BB2309F45CC0E0910601F0910701319624
:107DA000F0930701E09306014F5F5F4F46175707B7
:107DB000E8F4AA2369F3F999FECF209106013091E6
:107DC000070132BD21BDF89A90B58091C00085FFB2
:107DD000FCCF9093C6002F5F3F4F30930701209355
:107DE00006014F5F5F4F4617570718F38091C00099
:107DF00085FDE5CE8091C00085FFF8CFE0CE81E023
:107E00000E94C73C67CE0E94763C803209F08CCE3F
:107E10008091C00085FFFCCFF092C6008091C00029
:107E200085FFFCCFE092C6008091C00085FFFCCFAB
:107E3000D092C6008091C00085FFFCCFC092C600E2
:107E40008091C00085FFFCCFB092C60043CEE09188
:107E50000601F091070194918091C00085FFFCCF4D
:107E60009093C6009CCF80E10E94C73C33CE0E9415
:107E7000763C0E94763C182F0E94763C112309F430
:107E800083C0113009F484C08FE00E94C73C22CE29
:107E900080910C02816080930C02E5CE80910C02EF
:107EA000816080930C0259CF809107018823880F4D
:107EB000880B8A2180930B02809106019091070123
:107EC000880F991F90930701809306018091080203
:107ED00080FF09C080910802909109020196909359
:107EE000090280930802F894F999FECF1127E091D6
:107EF0000601F0910701C8E0D1E08091080290915D
:107F00000902103091F40091570001700130D9F34B
:107F100003E000935700E89500915700017001308D
:107F2000D9F301E100935700E89509901990009169
:107F3000570001700130D9F301E000935700E89534
:107F40001395103498F011270091570001700130FB
:107F5000D9F305E000935700E895009157000170B0
:107F60000130D9F301E100935700E895329602976A
:107F700009F0C7CF103011F00296E5CF112480919F
:107F8000C00085FFB9CEBCCE8EE10E94C73CA2CD19
:0E7F900085E90E94C73C9ECDF894FFCF80008B
:00000001FF
