:020000040000FA
:100000000C9462000C948A000C948A000C948A0070
:100010000C948A000C948A000C948A000C948A0038
:100020000C948A000C948A000C948A000C948A0028
:100030000C948A000C948A000C948A000C948A0018
:100040000C94C2030C948A000C9490030C946A03E1
:100050000C948A000C948A000C948A000C948A00F8
:100060000C948A000C948A000000000024002700F1
:100070002A0000000000250028002B0000000000DE
:1000800023002600290004040404040404040202DA
:100090000202020203030303030301020408102007
:1000A0004080010204081020010204081020000012
:1000B0000008000201000003040700000000000027
:1000C00000000C0411241FBECFEFD8E0DEBFCDBF6F
:1000D00011E0A0E0B1E0ECE4F3E102C005900D9284
:1000E000A239B107D9F722E0A2E9B1E001C01D921F
:1000F000AC37B207E1F710E0C2E6D0E004C02197C8
:10010000FE010E949E09C136D107C9F70E9427054A
:100110000C94A4090C940000AF92BF92CF92DF928E
:10012000EF92FF920F931F93CF93DF936C017B01AC
:100130008B01040F151FEB015E01AE18BF08C0173D
:10014000D10759F06991D601ED91FC910190F081B0
:10015000E02DC6010995892B79F7C501DF91CF9173
:100160001F910F91FF90EF90DF90CF90BF90AF90D5
:100170000895FC01538D448D252F30E0842F90E0AD
:10018000821B930B541710F0CF9608950197089592
:10019000FC01918D828D981761F0A28DAE0FBF2F5B
:1001A000B11D5D968C91928D9F5F9F73928F90E0B1
:1001B00008958FEF9FEF0895FC01918D828D981720
:1001C00031F0828DE80FF11D858D90E008958FEF5D
:1001D0009FEF0895FC01918D228D892F90E0805C26
:1001E0009F4F821B91098F73992708958BE991E0A6
:1001F0000E94EA0021E0892B09F420E0822F089573
:1002000080E090E0892B29F00E94F60081110C9487
:1002100000000895FC01A48DA80FB92FB11DA35AA9
:10022000BF4F2C91848D90E001968F739927848F16
:10023000A689B7892C93A089B1898C918370806439
:100240008C93938D848D981306C00288F389E02DDA
:1002500080818F7D80830895EF92FF920F931F938B
:10026000CF93DF93EC0181E0888F9B8D8C8D981369
:100270001AC0E889F989808185FF15C09FB7F89475
:10028000EE89FF896083E889F989808183708064C1
:1002900080839FBF81E090E0DF91CF911F910F910C
:1002A000FF90EF900895F62E0B8D10E00F5F1F4F1B
:1002B0000F731127E02E8C8D8E110CC00FB607FC2A
:1002C000FACFE889F989808185FFF5CFCE010E94B8
:1002D0000A01F1CFEB8DEC0FFD2FF11DE35AFF4F1B
:1002E000F0829FB7F8940B8FEA89FB898081806246
:1002F000CFCFCF93DF93EC01888D8823B9F0AA8903
:10030000BB89E889F9898C9185FD03C0808186FDD0
:100310000DC00FB607FCF7CF8C9185FFF2CF80811F
:1003200085FFEDCFCE010E940A01E9CFDF91CF9189
:100330000895833081F028F4813099F08230A9F05B
:1003400008958730A9F08830C9F08430B1F48091E5
:1003500080008F7D03C0809180008F778093800024
:10036000089584B58F7784BD089584B58F7DFBCFC4
:100370008091B0008F778093B00008958091B00095
:100380008F7DF9CF1F93CF93DF93282F30E0F901B2
:10039000E255FF4F8491F901E656FF4FD491F901E0
:1003A000EA57FF4FC491CC23A9F0162F81110E9468
:1003B0009901EC2FF0E0EE0FFF1FEE58FF4FA591D3
:1003C000B4918FB7F894EC91111108C0D095DE2349
:1003D000DC938FBFDF91CF911F910895DE2BF8CF73
:1003E000CF93DF9390E0FC01E656FF4F24918A57AC
:1003F0009F4FFC0184918823C9F090E0880F991FDA
:10040000FC01E859FF4FA591B491FC01EE58FF4F54
:10041000C591D49161110DC09FB7F8948C9120952E
:1004200082238C938881282328839FBFDF91CF91DB
:100430000895623051F49FB7F8943C91822F8095D3
:1004400083238C93E8812E2BEFCF8FB7F894EC9118
:100450002E2B2C938FBFEACF3FB7F8948091970152
:1004600090919801A0919901B0919A0126B5A89B0D
:1004700005C02F3F19F00196A11DB11D3FBFBA2F36
:10048000A92F982F8827BC01CD01620F711D811DF6
:10049000911D42E0660F771F881F991F4A95D1F77B
:1004A00008958F929F92AF92BF92CF92DF92EF9278
:1004B000FF920E942C024B015C0184EFC82EDD24C8
:1004C000D394E12CF12C0E942C02681979098A0935
:1004D0009B09683E734081059105A8F321E0C21A8B
:1004E000D108E108F10888EE880E83E0981EA11C6F
:1004F000B11CC114D104E104F10429F7FF90EF907D
:10050000DF90CF90BF90AF909F908F9008954F92C3
:100510005F926F927F928F929F92AF92BF92CF9293
:10052000DF92EF92FF920F931F93CF93DF93CDB79C
:10053000DEB762970FB6F894DEBF0FBECDBF4C0199
:10054000742E652E2B01AA86BB86CC86DD86EE86B0
:10055000FF86088B198B2A8B89E0FE013A96DE0113
:10056000119601900D928A95E1F78FEFF401808347
:1005700099E0FE013196D401129601900D929A9560
:10058000E1F791E0F401938784878587968781E07E
:1005900090E0908B87878401980128193909F4012C
:1005A000828590E00F5F1F4F2817390734F461E010
:1005B000F80181810E94F001EFCF91E001C0990F15
:1005C0008A95EAF79183858587FD0DC0871559F0D7
:1005D0009685913019F460E00E94C20160E0F40158
:1005E00085850E94F001F401758666864786508AEB
:1005F000611004C060E0872D0E94C201F40166858D
:10060000858562960FB6F894DEBF0FBECDBFDF9131
:10061000CF911F910F91FF90EF90DF90CF90BF90FF
:10062000AF909F908F907F906F905F904F900C94C1
:10063000F001FC0101900020E9F73197AF01481B60
:10064000590BBC018BE991E00C948C008F929F9226
:10065000AF92BF920F931F93CF93DF93CDB7DEB7C7
:10066000A1970FB6F894DEBF0FBECDBF19A24230DE
:1006700008F44AE08E010F5D1F4F842E912CB12C9F
:10068000A12CA50194010E947C09E62FB901CA01A1
:10069000EA30F4F4E05DD801EE938D01232B242B96
:1006A000252B79F790E080E0109719F0CD010E949A
:1006B0001903A1960FB6F894DEBF0FBECDBFDF9130
:1006C000CF911F910F91BF90AF909F908F90089501
:1006D000E95CE1CF1F920F920FB60F9211242F9376
:1006E0003F934F935F936F937F938F939F93AF93BA
:1006F000BF93EF93FF938BE991E00E940A01FF9172
:10070000EF91BF91AF919F918F917F916F915F9189
:100710004F913F912F910F900FBE0F901F90189502
:100720001F920F920FB60F9211242F938F939F93C6
:10073000EF93FF93E091AB01F091AC018081E091E8
:10074000B101F091B20182FD1BC090818091B40192
:100750008F5F8F732091B501821741F0E091B40152
:10076000F0E0E556FE4F958F8093B401FF91EF9135
:100770009F918F912F910F900FBE0F901F90189502
:100780008081F4CF1F920F920FB60F9211242F93F6
:100790003F938F939F93AF93BF93809193019091D9
:1007A0009401A0919501B09196013091920123E0BE
:1007B000230F2D3758F50196A11DB11D20939201ED
:1007C0008093930190939401A0939501B093960127
:1007D0008091970190919801A0919901B0919A010F
:1007E0000196A11DB11D8093970190939801A0934C
:1007F0009901B0939A01BF91AF919F918F913F91D1
:100800002F910F900FBE0F901F90189526E8230F81
:100810000296A11DB11DD2CF8F929F92AF92BF922F
:10082000CF92DF92EF92FF920F931F93CF93DF93BC
:10083000CDB7DEB729970FB6F894DEBF0FBECDBF98
:1008400010929E0110929D0188EE93E0A0E0B0E02E
:1008500080939F019093A001A093A101B093A20166
:1008600084E091E090939C0180939B0185EC90E063
:100870009093A8018093A70184EC90E09093AA0143
:100880008093A90180EC90E09093AC018093AB0140
:1008900081EC90E09093AE018093AD0182EC90E00A
:1008A0009093B0018093AF0186EC90E09093B201F9
:1008B0008093B1011092B4011092B5011092B6016B
:1008C0001092B70182E0898384E08A8387E08B837A
:1008D00088E08C838FEF8D838E838F838887FE01E2
:1008E000319690E080E04F01219127FF94C08987E5
:1008F000A980BA80CB80DC80ED80FE800F811885D6
:1009000029854EE050E060E070E08BE692E00E94C6
:10091000870282E0898384E08A8387E08B8388E092
:100920008C838FEF8D838E838F838887F40190E093
:1009300080E0219127FF76C08987A980BA80CB808B
:10094000DC80ED80FE800F81188529854FE050E026
:1009500060E070E08AE592E00E94870282E089838D
:1009600084E08A8387E08B8388E08C838FEF8D839C
:100970008E838F838887F40190E080E0219127FFA8
:1009800058C08987A980BA80CB80DC80ED80FE804A
:100990000F811885298545E050E061E070E089E429
:1009A00092E00E94870282E0898384E08A8387E064
:1009B0008B8388E08C838FEF8D838E838F838887F2
:1009C000F40190E080E0219127FF3AC08987A98057
:1009D000BA80CB80DC80ED80FE800F811885298570
:1009E00046E050E061E070E088E392E00E94870218
:1009F00029960FB6F894DEBF0FBECDBFDF91CF9121
:100A00001F910F91FF90EF90DF90CF90BF90AF902C
:100A10009F908F90089501968830910509F064CFDA
:100A200088E065CF01968830910509F082CF88E093
:100A300083CF01968830910509F0A0CF88E0A1CF3F
:100A400001968830910509F0BECF88E0BFCF789439
:100A500084B5826084BD84B5816084BD85B58260C3
:100A600085BD85B5816085BD80916E008160809374
:100A70006E001092810080918100826080938100DD
:100A800080918100816080938100809180008160ED
:100A9000809380008091B10084608093B100809148
:100AA000B00081608093B00080917A008460809370
:100AB0007A0080917A00826080937A0080917A0037
:100AC000816080937A0080917A00806880937A00B8
:100AD0001092C100E091AB01F091AC0182E0808303
:100AE000E091A701F091A8011082E091A901F09195
:100AF000AA018FEC80831092B301E091AF01F091D5
:100B0000B00186E08083E091AD01F091AE0180817B
:100B100080618083E091AD01F091AE0180818860B9
:100B20008083E091AD01F091AE0180818068808387
:100B3000E091AD01F091AE0180818F7D808382E1F3
:100B400091E00E94190361E082E00E94F00161E0FF
:100B500084E00E94F00161E087E00E94F00161E022
:100B600088E00E94F00161E082E00E94C20161E041
:100B700084E00E94C20161E087E00E94C20161E05E
:100B800088E00E94C20160E082E00E94C20160E051
:100B900084E00E94C20160E087E00E94C20160E040
:100BA00088E00E94C2018BE291E00E941903C0E03C
:100BB000D0E081E491E00E9419038DE591E00E946C
:100BC00019030E94510200E080916C02081708F09E
:100BD0004AC107FD25C090916B02091709F1E02E6B
:100BE000002E000CFF088E151F0409F00CF49FC0A6
:100BF00000936B0210E080917502181788F4E12FC2
:100C0000F0E0B701012E02C0759567950A94E2F7EE
:100C10006170E559FD4F82810E94C2011F5FEBCFD9
:100C200080917A0290917B02009741F0019709F43C
:100C300059C08EEFE82EFF24FA9418C080917802F4
:100C40008E3008F08E508770806480937C00809195
:100C50007A00806480937A0080917A0086FDFCCFD0
:100C600060917800E0907900FE2CE62E80E691E01D
:100C70000E941903602F70E090E080E04AE00E943B
:100C800026038AE791E00E941903B701FF0C880B45
:100C9000990B0E94550820E030E048EC52E40E9495
:100CA0000A0920E030EC4FE754E40E94B2076B01E0
:100CB0007C014B015C01AC019B010E9477098823F8
:100CC00009F43DC082E891E00E9419038EE891E0AA
:100CD0000E9419038DE591E00E9419030E945102C0
:100CE0000F5F72CF2091780230E0F901E255FF4F9B
:100CF0008491F901E656FF4FF490F901EA57FF4F4E
:100D000014911123C9F081110E949901E12FF0E0A3
:100D1000EE0FFF1FE458FF4FA591B491EC91FE2216
:100D200091E080E009F490E0E92EF82E9FCF9DEF4E
:100D3000E92EFF24FA949ACFF12CE12C97CF2601CB
:100D40003701E89477F82FEF3FEF4FE75FE7C301F4
:100D5000B2010E94770981110DC02FEF3FEF4FE7DD
:100D60005FE7C301B2010E94AD0718161CF486E8C4
:100D700091E0AACF2FEF3FEF4FE75FE4C701B60145
:100D80000E94050918161CF48AE891E09DCF2FEF08
:100D90003FEF4FE75FECC701B6010E94AD0787FD4B
:100DA000F3CF20E030E0A901C701B6010E94AD07F2
:100DB00087FF0BC06DE28BE991E00E942C01460198
:100DC0005701B7FAB094B7F8B0942AE037ED43EA88
:100DD0005BE3C501B4010E9441074B015C010E9425
:100DE00024086B017C010E9453089B01AC01C501E2
:100DF000B4010E9440074B015C014AE0C701B60103
:100E00000E9426036EE28BE991E00E942C0120E013
:100E100030E040E251E4C501B4010E940A094B01EF
:100E20005C010E9424086B01F12CE12C4AE0C7010F
:100E3000B6010E942603C701B6010E9453089B0118
:100E4000AC01C501B4010E94400720E030E040E25F
:100E500051E40E940A090E94240890E080E04AE0E0
:100E60000E94260333CF0E945102209709F4A1CE9D
:100E70000E94F600882309F49CCE0E94000099CEBF
:100E80005058BB27AA270E9458070C94CB080E94F1
:100E9000BD0838F00E94C40820F039F49F3F19F4CF
:100EA00026F40C94BA080EF4E095E7FB0C94B40811
:100EB000E92F0E94DC0858F3BA176207730784070A
:100EC000950720F079F4A6F50C94FE080EF4E09551
:100ED0000B2EBA2FA02D0B01B90190010C01CA01F4
:100EE000A0011124FF27591B99F0593F50F4503E9F
:100EF00068F11A16F040A22F232F342F4427585F91
:100F0000F3CF469537952795A795F0405395C9F7A8
:100F10007EF41F16BA0B620B730B840BBAF0915060
:100F2000A1F0FF0FBB1F661F771F881FC2F70EC0FF
:100F3000BA0F621F731F841F48F4879577956795D2
:100F4000B795F7959E3F08F0B0CF9395880F08F0BE
:100F50009927EE0F9795879508950E94900808F4B9
:100F600081E008950E94C6070C94CB080E94C40833
:100F700058F00E94BD0840F029F45F3F29F00C941E
:100F8000B40851110C94FF080C94BA080E94DC08B4
:100F900068F39923B1F3552391F3951B550BBB27A8
:100FA000AA2762177307840738F09F5F5F4F220FED
:100FB000331F441FAA1FA9F335D00E2E3AF0E0E8E4
:100FC00032D091505040E695001CCAF72BD0FE2F2E
:100FD00029D0660F771F881FBB1F261737074807C2
:100FE000AB07B0E809F0BB0B802DBF01FF2793587A
:100FF0005F4F3AF09E3F510578F00C94B4080C9482
:10100000FF085F3FE4F3983ED4F3869577956795A4
:10101000B795F7959F5FC9F7880F911D96958795AE
:1010200097F90895E1E0660F771F881FBB1F6217CD
:1010300073078407BA0720F0621B730B840BBA0B8B
:10104000EE1F88F7E09508950E94E40888F09F5706
:1010500098F0B92F9927B751B0F0E1F0660F771FDC
:10106000881F991F1AF0BA95C9F714C0B13091F0D2
:101070000E94FE08B1E008950C94FE08672F782FB7
:101080008827B85F39F0B93FCCF386957795679597
:10109000B395D9F73EF490958095709561957F4F03
:1010A0008F4F9F4F0895E89409C097FB3EF49095A9
:1010B0008095709561957F4F8F4F9F4F9923A9F031
:1010C000F92F96E9BB279395F695879577956795C0
:1010D000B795F111F8CFFAF4BB0F11F460FF1BC004
:1010E0006F5F7F4F8F4F9F4F16C0882311F096E997
:1010F00011C0772321F09EE8872F762F05C0662345
:1011000071F096E8862F70E060E02AF09A95660FFD
:10111000771F881FDAF7880F9695879597F90895B6
:10112000990F0008550FAA0BE0E8FEEF16161706F8
:10113000E807F907C0F012161306E407F50798F060
:10114000621B730B840B950B39F40A2661F0232B79
:10115000242B252B21F408950A2609F4A140A695F5
:101160008FEF811D811D089597F99F6780E870E0DA
:1011700060E008959FEF80EC089500240A9416160D
:10118000170618060906089500240A941216130675
:10119000140605060895092E0394000C11F4882303
:1011A00052F0BB0F40F4BF2B11F460FF04C06F5F1F
:1011B0007F4F8F4F9F4F089557FD9058440F551FF5
:1011C00059F05F3F71F04795880F97FB991F61F0C9
:1011D0009F3F79F087950895121613061406551F40
:1011E000F2CF4695F1DF08C0161617061806991FAC
:1011F000F1CF86957105610508940895E894BB27A1
:1012000066277727CB0197F908950E94900808F484
:101210008FEF08950E941D090C94CB080E94BD0811
:1012200038F00E94C40820F0952311F00C94B40803
:101230000C94BA0811240C94FF080E94DC0870F387
:10124000959FC1F3950F50E0551F629FF001729F6B
:10125000BB27F00DB11D639FAA27F00DB11DAA1F7A
:10126000649F6627B00DA11D661F829F2227B00DC7
:10127000A11D621F739FB00DA11D621F839FA00D52
:10128000611D221F749F3327A00D611D231F849FA2
:10129000600D211D822F762F6A2F11249F575040F9
:1012A0009AF0F1F088234AF0EE0FFF1FBB1F661F74
:1012B000771F881F91505040A9F79E3F510580F03D
:1012C0000C94B4080C94FF085F3FE4F3983ED4F309
:1012D000869577956795B795F795E7959F5FC1F7E1
:1012E000FE2B880F911D9695879597F908950E947A
:1012F0009008880B990B0895A1E21A2EAA1BBB1B1C
:10130000FD010DC0AA1FBB1FEE1FFF1FA217B307D1
:10131000E407F50720F0A21BB30BE40BF50B661FE7
:10132000771F881F991F1A9469F7609570958095AB
:1013300090959B01AC01BD01CF010895EE0FFF1FF9
:101340000590F491E02D0994F894FFCF000000007F
:101350002C018C00B9007901EA00C800DC000A4FBA
:101360006C612C20736574757020696E69636961A6
:101370006E646F2E2E2E000A4F6C612C20736574E4
:1013800075702065786563757461646F000A4F6CD1
:10139000612C206C6F6F702073656E646F20696EB6
:1013A000636961646F2E2E2E000D0A00506F746504
:1013B0006E74696F6D657465722061742063686115
:1013C0006E6E656C200020697320617420006E6170
:0E13D0006E00696E66006F76660025250000CF
:107800000C94343C0C94513C0C94513C0C94513CE1
:107810000C94513C0C94513C0C94513C0C94513CB4
:107820000C94513C0C94513C0C94513C0C94513CA4
:107830000C94513C0C94513C0C94513C0C94513C94
:107840000C94513C0C94513C0C94513C0C94513C84
:107850000C94513C0C94513C0C94513C0C94513C74
:107860000C94513C0C94513C11241FBECFEFD8E036
:10787000DEBFCDBF11E0A0E0B1E0ECE9FFE702C060
:1078800005900D92A230B107D9F712E0A2E0B1E065
:1078900001C01D92AD30B107E1F70E942D3D0C945F
:1078A000CC3F0C94003C982F959595959595959582
:1078B000905D8F708A307CF0282F295A8091C0000B
:1078C00085FFFCCF9093C6008091C00085FFFCCF60
:1078D0002093C6000895282F205DF0CF982F809127
:1078E000C00085FFFCCF9093C6000895EF92FF92F1
:1078F0000F931F93EE24FF2487018091C00087FD22
:1079000017C00894E11CF11C011D111D81E4E8164B
:1079100082E4F8068FE0080780E0180770F3E09132
:107920000401F091050109958091C00087FFE9CF1E
:107930008091C6001F910F91FF90EF9008950E94D3
:10794000763C982F8091C00085FFFCCF9093C600B5
:1079500091362CF490330CF09053892F089597555D
:10796000892F08951F930E949F3C182F0E949F3CCF
:107970001295107F810F1F9108951F93182F882350
:1079800021F00E94763C1150E1F71F9108951F935A
:10799000182F0E94763C803249F0809103018F5F5E
:1079A000809303018530C1F01F9108958091C0003C
:1079B00085FFFCCF84E18093C6008091C00085FFE5
:1079C000FCCF1093C6008091C00085FFFCCF80E102
:1079D0008093C6001F910895E0910401F091050184
:1079E00009951F9108950E94763C803241F0809164
:1079F00003018F5F80930301853081F008958091AA
:107A0000C00085FFFCCF84E18093C6008091C00058
:107A100085FFFCCF80E18093C6000895E0910401CA
:107A2000F09105010995089540E951E08823A1F0FE
:107A30002D9A28EE33E0FA013197F1F721503040CA
:107A4000D1F72D9828EE33E0FA013197F1F7215064
:107A50003040D1F7815061F708953F924F925F9285
:107A60006F927F928F929F92AF92BF92CF92DF924E
:107A7000EF92FF920F931F93CF93DF93000080E16B
:107A80008093C4001092C50088E18093C10086E015
:107A90008093C2005098589A259A81E00E94143D24
:107AA00024E1F22E9EE1E92E85E9D82E0FE0C02ECA
:107AB00010E1B12EAA24A394B1E49B2EA6E58A2E50
:107AC000F2E57F2EE0E26E2E79E4572E63E5462E36
:107AD00050E5352E0E94763C8033B1F18133B9F107
:107AE000803409F46FC0813409F476C0823409F41B
:107AF00085C0853409F488C0803531F1823521F1A3
:107B0000813511F1853509F485C0863509F48DC0BC
:107B1000843609F496C0843709F403C1853709F423
:107B200072C1863709F466C0809103018F5F80932C
:107B30000301853079F6E0910401F0910501099582
:107B40000E94763C803351F60E94F33CC3CF0E94E2
:107B5000763C803249F78091C00085FFFCCFF092DF
:107B6000C6008091C00085FFFCCF9092C600809136
:107B7000C00085FFFCCF8092C6008091C00085FFC9
:107B8000FCCF7092C6008091C00085FFFCCF609250
:107B9000C6008091C00085FFFCCF5092C600809146
:107BA000C00085FFFCCF4092C6008091C00085FFD9
:107BB000FCCF3092C6008091C00085FFFCCFB09210
:107BC000C60088CF0E94763C863808F4BDCF0E945C
:107BD000763C0E94F33C7ECF0E94763C803809F4CC
:107BE0009CC0813809F40BC1823809F43CC1883942
:107BF00009F48FC080E00E94C73C6CCF84E10E94F2
:107C0000BD3C0E94F33C66CF85E00E94BD3C0E94D3
:107C1000F33C60CF0E94763C809306010E94763C44
:107C2000809307010E94F33C55CF0E94763C80333D
:107C300009F41DC183E00E94BD3C80E00E94C73C66
:107C400049CF0E94763C809309020E94763C809343
:107C5000080280910C028E7F80930C020E94763C79
:107C6000853409F415C18091080290910902892B8D
:107C700089F000E010E00E94763CF801E85FFE4FDA
:107C800080830F5F1F4F80910802909109020817AF
:107C9000190788F30E94763C803209F045CF809125
:107CA0000C0280FF01C16091060170910701660F0F
:107CB000771F7093070160930601A0910802B091AD
:107CC00009021097C9F0E8E0F1E09B01AD014E0F09
:107CD0005F1FF999FECF32BD21BD819180BDFA9A17
:107CE000F99A2F5F3F4FE417F50799F76A0F7B1F4B
:107CF00070930701609306018091C00085FFFCCF5F
:107D0000F092C6008091C00085FFFCCFB092C60003
:107D1000E1CE83E00E94C73CDDCE82E00E94C73CFA
:107D2000D9CE0E94763C809309020E94763C8093D3
:107D300008028091060190910701880F991F909386
:107D40000701809306010E94763C853409F4A6C0A1
:107D500080910C028E7F80930C020E94763C8032D0
:107D600009F0B8CE8091C00085FFFCCFF092C6002C
:107D7000609108027091090261157105B9F140E046
:107D800050E080910C02A82FA170B82FB27011C0E2
:107D9000BB2309F45CC0E0910601F0910701319624
:107DA000F0930701E09306014F5F5F4F46175707B7
:107DB000E8F4AA2369F3F999FECF209106013091E6
:107DC000070132BD21BDF89A90B58091C00085FFB2
:107DD000FCCF9093C6002F5F3F4F30930701209355
:107DE00006014F5F5F4F4617570718F38091C00099
:107DF00085FDE5CE8091C00085FFF8CFE0CE81E023
:107E00000E94C73C67CE0E94763C803209F08CCE3F
:107E10008091C00085FFFCCFF092C6008091C00029
:107E200085FFFCCFE092C6008091C00085FFFCCFAB
:107E3000D092C6008091C00085FFFCCFC092C600E2
:107E40008091C00085FFFCCFB092C60043CEE09188
:107E50000601F091070194918091C00085FFFCCF4D
:107E60009093C6009CCF80E10E94C73C33CE0E9415
:107E7000763C0E94763C182F0E94763C112309F430
:107E800083C0113009F484C08FE00E94C73C22CE29
:107E900080910C02816080930C02E5CE80910C02EF
:107EA000816080930C0259CF809107018823880F4D
:107EB000880B8A2180930B02809106019091070123
:107EC000880F991F90930701809306018091080203
:107ED00080FF09C080910802909109020196909359
:107EE000090280930802F894F999FECF1127E091D6
:107EF0000601F0910701C8E0D1E08091080290915D
:107F00000902103091F40091570001700130D9F34B
:107F100003E000935700E89500915700017001308D
:107F2000D9F301E100935700E89509901990009169
:107F3000570001700130D9F301E000935700E89534
:107F40001395103498F011270091570001700130FB
:107F5000D9F305E000935700E895009157000170B0
:107F60000130D9F301E100935700E895329602976A
:107F700009F0C7CF103011F00296E5CF112480919F
:107F8000C00085FFB9CEBCCE8EE10E94C73CA2CD19
:0E7F900085E90E94C73C9ECDF894FFCF80008B
:00000001FF
